:100000000AC2000038C2000036C200000C94080B7F
:1000100032C2000030C200002EC200000C94DB0A85
:100020002AC2000028C2000026C200000C94350B32
:1000300022C2000020C200001EC200000C946923EE
:100040001AC2000018C2000016C2000014C200004C
:1000500012C2000010C200000EC200000CC200005C
:100060000AC200000C94DB0B0C940A0C04C20000C2
:1000700002C2000000C20000FEC10000FCC100007E
:10008000FAC10000F8C10000F6C10000F4C1000090
:100090000C94450C0C94740CEEC100000C943F249D
:1000A000EAC100000C949623E6C10000E4C1000000
:1000B000E2C10000E0C100000C94C323DCC10000D9
:1000C000DAC10000D8C100000C94DB150C94AF0C11
:1000D0000C94DE0CD0C10000CEC10000CCC10000E9
:1000E000CAC10000891289128E128E128E129312CA
:1000F00093129312A61298129812B312B712BD124D
:10010000C112C512CB12CF12D312E212D912DD12D4
:10011000ED12F112F712FB12FF12051309130D1362
:100120001C131313171336133B13401345134A13B1
:100130004F135413591367135E13631396139B13D2
:10014000A013A513AA13AF13B413B913C813BE1386
:10015000C3134572726F723A2041505F48414C5F41
:100160004156523A3A415652416E616C6F67496E40
:10017000206F7574206F66206368616E6E656C73A6
:100180000D0A00474F494E4720444F574E20464FD7
:10019000522041205245424F4F540D0A0050414ECB
:1001A00049433A207363686564756C65723A3A73C3
:1001B000797374656D5F696E697469616C697A657C
:1001C000642063616C6C65646D6F72652074686136
:1001D0006E206F6E63650050414E49433A20415690
:1001E0005253656D6170686F72653A3A74616B6500
:1001F00020757365642066726F6D20696E73696423
:10020000652074696D65722070726F636573730029
:1002100050414E49433A2053504930207772697417
:100220006520636F6C6C6973696F6E0050414E4955
:10023000433A2053504930207472616E7366657280
:1002400020636F6C6C6973696F6E002C76D8886759
:100250004F0823C1DFAE59B1B796E5E453C63A5112
:10026000997696E6C28426898C9B62407C6FFCBCA2
:100270009C9F40BAA56FA590055A2A5C936B6C674A
:100280006DC11BE0E40D47F520E6B5D0ED902E00E2
:100290009435770080841E0000204E000000C83393
:1002A000333333986E128341EF8D21893BE655CF6E
:1002B000FEE6DBD1844B38F77C1D90A4BBE42432EE
:1002C00084725E8100C9F1ECA1E53DDCDFE1E3E68B
:1002D000E8EBEDEFF2F4F7F9FCFE000305080A0C79
:1002E0000F111416181B1D202224276E616E006941
:1002F0006E660001021020200808102040102040E7
:1003000080020102010804020101020408102040D9
:1003100080804020100804020180040201804020F7
:100320001008040201080402010102040810204020
:1003300080010204081020408040050505050705DE
:1003400008080808020202020A0A08080404040451
:10035000010101010101010103030303030303037D
:10036000040707070C0C0C0C0C0C0C0C020202020C
:1003700006060606060606060B0B0B0B0B0B0B0BF5
:1003800005000020002300260029002C002F003249
:100390000000010000030106010901000022002500
:1003A0000028002B002E003100340002010000055F
:1003B0000108010B0100002100240027002A002D64
:1003C000003000330001010000040107010A014E62
:1003D000414E494E495459494E46CDCCCC3D0AD7A1
:1003E000233C17B7D13877CC2B329595E6241FB133
:1003F0004F0A000020410000C84200401C4620BCBB
:10040000BE4CCA1B0E5AAEC59D740C06530D9515F5
:100410008A198D19621A11241FBECFEFD1E2DEBFF7
:10042000CDBF00E00CBF13E0A0E0B2E0ECE0F9E5E6
:1004300000E00BBF02C007900D92A837B107D9F7B3
:1004400012E1A8E7B3E001C01D92AB3CB107E1F7B0
:1004500014E0C6E1D4E000E006C022970109FE01E5
:100460000BBF0E944F29CA30D10780E00807A9F7C7
:1004700064D20C94842CC4CD1092220C1092210CC6
:100480001092200C10921F0C81E080931E0C109291
:100490001D0410921C0480931B040895EDDF10923C
:1004A000A20381E08093A103E3EAF3E011921192A9
:1004B0001192119283E0EF3DF807C1F78091D010BF
:1004C0009091D110DC01ED91FC910680F781E02D37
:1004D0001995605F784D8F4F9F4F60937F037093A6
:1004E0008003809381039093820362E070E083E253
:1004F00090E18BD369EB74E083E290E188C3A0E4E0
:10050000B0E0E5E8F2E00C9496288091CC10909150
:10051000CD10DC01ED91FC910680F781E02D45E0E6
:1005200067E973E0199557E9A52E53E0B52E03E866
:1005300013E0F501619171915F0180E090E00E940C
:100540006A2620E030E84BEB54E40E946D259B01C5
:10055000AC010E946E2520E030E04AE754E40E949E
:10056000D6256B017C0120E030E040E85FEB0E9483
:10057000D22587FF05C080E090E0A0E8BFEB15C062
:1005800020E030E040E85FE3C701B6010E941C278D
:1005900018163CF0D801CD92DD92ED92FC921397A3
:1005A00009C080E090E0A0E8BFE3F8018083918378
:1005B000A283B3830C5F1F4FF1EAAF16F3E0BF06CF
:1005C00009F0B7CF8091D0109091D110DC01ED915E
:1005D000FC910680F781E02D1995C0907F03D090A3
:1005E0008003E0908103F09082030091C810109185
:1005F000C9106C157D058E059F0508F466C0B7010E
:10060000A601405F584D6F4F7F4F40937F0350933B
:100610008003609381037093820380917A039091A9
:100620007B03019690937B0380937A03D801ED912D
:10063000FC911F9281E08F938FEB8F9380E88F93D3
:100640001F921F92809192038F93809191038F93B9
:10065000809190038F9380918F038F9380918E036D
:100660008F9380918D038F9380918C038F938091D2
:100670008B038F9380918A038F93809189038F934B
:10068000809188038F93809187038F931F921F928D
:100690001F921F92809186038F93809185038F9381
:1006A000809184038F93809183038F9387E092E0FE
:1006B0009F938F931F930F930684F785E02D1995D1
:1006C0000FB6F894DEBF0FBECDBFD801ED91FC91FF
:1006D0000480F581E02DC801199521E0892B09F4EA
:1006E00020E020937E03E0901F0CF090200C80917E
:1006F000210C9091220C21110BC050911E0C4091A5
:100700001B0420911C0430911D0460E0A1E021C075
:100710008E159F0509F0F3C020911E0C2111EFC02A
:10072000ECCF51113AC0FC01ED5DF34F70814423D1
:1007300021F075957595759575957F70F901E25E57
:10074000FB4F71111FC0108261E04A27F1F42F5F47
:100750003F4F2115B8E03B0770F5662311F39093E6
:10076000220C8093210C50931E0C40931B0410927A
:100770001D0410921C04B12CA12C20E0912C4FE000
:10078000842E84C0765D7083E0CF019693708E15C1
:100790009F05E9F6C70151E0DACF9093220C8093D0
:1007A000210C81E080931E0C40931B0430931D04A8
:1007B00020931C04BDC09093220C8093210C509375
:1007C0001E0C40931B0430931D0420931C046111E4
:1007D000CECFAEC0311170C0E1E0F0E0EC0FFD1FF4
:1007E000E80FF91F10820091A10310E0CA2CD12C50
:1007F000CE0101960E94942A809EF001819EF00D08
:100800001124EC0DFD1DEE0FFF1FEE0FFF1FED5528
:10081000FC4F60837183828393838091A10386015F
:10082000889E000D111D1124000F111F000F111FB4
:100830000D551C4FD8016D917D918D919C919B011F
:10084000AC010E9483278823B1F08091A203F601B6
:10085000889EE00DF11D1124EE0FFF1FEE0FFF1F0C
:10086000ED55FC4F80819181A281B381F801808395
:100870009183A283B38381E0D7019C91911180E0A1
:10088000A394B39420E09394811120C080917803C5
:100890009091790301969093790380937803E92CE2
:1008A000F12CF701E25EFB4F7F013081822F90E057
:1008B0003C3209F08FCF90CF2F5FE1E0F0E0EC0FFA
:1008C000FD1FE80FF91F308380E0DDCF8B2D90E016
:1008D00090937D0380937C03BFE0BB1229C09FB738
:1008E000F8948091A1038F5F81708093A103809120
:1008F000A2038F5F81708093A2039FBF19C0D801AC
:10090000ED91FC910084F185E02DC8011995F70166
:10091000ED5DF34F808380911F0C9091200C019628
:1009200093709093200C80931F0C10921E0CCDCED0
:10093000C05CDF4FECE00C94B228E091B610F0916F
:10094000B7100190F081E02D40E050E060E070E0F1
:1009500086EB90E11995A2DD8091D0109091D11095
:10096000DC01ED91FC91028CF38DE02D1995C7DD32
:10097000FECF6091A2038CE3689FB00111246D55F6
:100980007C4F4CE350E083E290E1CBC061E070E04B
:100990000C945329089580E090E008950F931F93DD
:1009A000CF93DF93EC01FB0164918F010F5F1F4F29
:1009B000662349F0E881F9810190F081E02DCE01B4
:1009C0001995F801F1CFDF91CF911F910F91089503
:1009D000CF93DF93EC01E881F9810284F385E02D68
:1009E0001995CE010E94AE1EDF91CF910895A0E02F
:1009F000B0E0EDEFF4E00C94A0288E819F81DC0143
:100A0000ED91FC910288F389E02DAE01465F5F4FC6
:100A1000688579851995E2E00C94BC28A0E0B0E0E7
:100A2000E4E1F5E00C94A0288E819F81DC01ED913A
:100A3000FC910488F589E02DAE01465F5F4F688523
:100A400079851995E2E00C94BC289A01AB0160E02D
:100A50000C94C01E9A01AB0161E00C94C01E809101
:100A60006E1090E020916F10821B91090895809183
:100A70002C1090E020912D10821B91090895209157
:100A80006F1080916E10281750F4E22FF0E0E059BB
:100A9000FF4E808190E02F5F20936F1008958FEFBD
:100AA0009FEF0895E0916F1080916E10E81730F479
:100AB000F0E0E059FF4E808190E008958FEF9FEFC6
:100AC00008950895E0912710F09128103097E1F0F3
:100AD00030916F1020916E103217B0F040E0242F4B
:100AE00030E02617370754F4DC01A20FB31F5C91E6
:100AF000D901A059BF4E5C934F5FF1CF10926F1098
:100B000060936E10CB0119950895E0912910F09132
:100B10002A10309729F010922D1010922C10199550
:100B20000895A0E0B0E0E7E9F5E00C949A287C0194
:100B3000CB018A0120912B10222389F0EB016B015C
:100B4000C40ED51ECC15DD0569F06991D701ED9174
:100B5000FC910190F081E02DC7011995F3CF642F2E
:100B60000E940C24C801CDB7DEB7E8E00C94B6288B
:100B7000A1E0B0E0EEEBF5E00C94A02869832091B1
:100B80002B102223D1F020912C10203440F021E0B2
:100B900030E0FC013383228380E090E015C0809137
:100BA0002D10E82FF0E0E25DFF4E998190838F5F7A
:100BB00080932D1080932C1005C061E0CE0101962A
:100BC0000E940C2481E090E02196E2E00C94BC2885
:100BD00010926F1010926E1010922D1010922C1017
:100BE0000C94F023CF93DF93EC01862F0E9408240E
:100BF00085E895E00E942A2482E695E00E9425245B
:100C0000CE01E6DFDF91CF910895ECCF0895709388
:100C10002A10609329100895109226101092251022
:100C200084E292E0909324108093231008954FB7AC
:100C3000F894FC01258136814FBF838540E050E068
:100C40008E3F31F460E070E381E190E00E94AE27D6
:100C5000CA01B9010C946A268F929F92AF92BF92FB
:100C6000CF92DF92EF92FF92CF93DF93EC01E0916E
:100C70001E02F0911F0286859785DC01ED91FC91A3
:100C80000280F381E02D6EEF70E01995DC01ED91AB
:100C9000FC910190F081E02D19956B017C01E881B8
:100CA000F9810190F081E02DCE0119954B015C0195
:100CB00020E030E04AE755E4C701B6010E94D225A2
:100CC00087FD12C020E030E84BEB55E4C701B601C8
:100CD0000E941C27181674F4C12C80E8D82E8BEBC8
:100CE000E82E85E4F82E06C0C12CD12C9AE7E92E17
:100CF00095E4F92EA7019601C501B4010E942027B1
:100D00002FE632E143E855E30E942027DF91CF919F
:100D1000FF90EF90DF90CF90BF90AF909F908F901B
:100D20000895DC01ED91FC910190F081E02D199581
:100D30002AE038E240EA5BE30C942027EF92FF922E
:100D40000F931F93CF93DF93EC01F62E8B856817DB
:100D5000E9F182E0860F823060F100911E0210916D
:100D60001F02D80154968D919C915597DC01ED910D
:100D7000FC910284F385E02D1995E82EBFEF8B17C7
:100D8000C1F0F80184899589DC01ED91FC91028024
:100D9000F381E02D40E06E2D1995F8018489958945
:100DA000DC01ED91FC910680F781E02D40E06E2D95
:100DB00019958FB7F8941C821B821A821F8218869D
:100DC00019861A861E821D82FB868FBFCDB7DEB7BD
:100DD000E6E00C94B828FC0164870895FC0176874E
:100DE000658708958F929F92AF92BF92CF92DF92C4
:100DF000EF92FF92CF93DF93EC018B858E3F61F4EE
:100E0000E881F9810280F381E02DCE0119952FE66A
:100E100032E143E85AE34DC0E0911E02F0911F0217
:100E200086859785DC01ED91FC910280F381E02DB0
:100E30006EEF70E01995DC01ED91FC910190F0816D
:100E4000E02D19956B017C01E881F9810280F38125
:100E5000E02DCE0119954B015C0120E030E04AE71E
:100E600055E4C701B6010E94D22587FD12C020E0DB
:100E700030E84BEB55E4C701B6010E941C27181659
:100E800074F4C12C20E8D22E2BEBE22E25E4F22EB6
:100E900006C0C12CD12C3AE7E32E35E4F32EA7018E
:100EA0009601C501B4010E9420272FE632E143E8F4
:100EB00055E30E942027DF91CF91FF90EF90DF90C4
:100EC000CF90BF90AF909F908F900895FC0186E3E4
:100ED00092E091838083128214821382178210869B
:100EE000118612868FEF8387848716861586CF0139
:100EF00025CFCF92DF92EF92FF921F93CF93DF9394
:100F0000EC018A81811105C02F81388559854A8578
:100F100025C02FB7F8948B819C811A811C821B827B
:100F20001A822FBFBC0180E090E00E946A266B010C
:100F30007C01612F70E080E090E00E946A269B01B6
:100F4000AC01C701B6010E94D6259B01AB01BC01D3
:100F50004F83588769877A87582F492FB901852F82
:100F6000942FDF91CF911F91FF90EF90DF90CF9062
:100F70000895FC0123852E3F81F4BBDF0E943E26AD
:100F80009B0140E050E060E070E381E190E00E946E
:100F9000AE27CA01B9010C946A26ABCFFF920F931A
:100FA0001F93CF93DF93EC016C856F3F49F1009164
:100FB0001E0210911F02D80154968D919C91559755
:100FC000DC01ED91FC910284F385E02D1995F82E5A
:100FD000F80184899589DC01ED91FC910280F3810F
:100FE000E02D41E06F2D1995F80184899589DC0188
:100FF000ED91FC910680F781E02D41E06F2D199570
:101000008D859E85892B89F0E0911E02F0911F024B
:10101000828D938DDC01ED91FC910480F581E02DB2
:1010200019956F87788B898B9A8B8B858E3F39F4D6
:1010300080917B00877F80937B008EE50CC08F3F83
:1010400061F090917B008870977F892B80937B0063
:101050008B858770806480937C00CDB7DEB7E5E038
:101060000C94B9281F93CF93DF93DC011C966C91ED
:101070006F3F21F1C0911E02D0911F028C899D8982
:10108000DC01ED91FC910284F385E02D1995182F78
:101090008C899D89DC01ED91FC910280F381E02D2A
:1010A00041E0612F19958C899D89DC01ED91FC91BE
:1010B0000680F781E02D40E0612F1995DF91CF91F7
:1010C0001F9108950F931F93CF93DF93EC018D85AC
:1010D0009E85892B01F1E0911E02F0911F02828D05
:1010E000938DDC01ED91FC910480F581E02D199543
:1010F0000F85188929893A89601B710B820B930B24
:101100000D851E8520E030E0601771078207930788
:1011100010F480E001C081E0DF91CF911F910F9129
:101120000895FC0183819481860F971F94838383A4
:101130007683658382818F3340F083819481969595
:1011400087959483838380E202C082818F5F82834C
:10115000089560E070E0CB01089580E090E008958C
:10116000CF93DF93EC01EC8DFD8D3196EE0FFF1FD9
:10117000E80FF91F80819181FC0123852F3F19F42D
:1011800060E070E026C020917A0026FD44C02A8DE0
:101190003B8D232B09F43FC02E8D3F8D2F5F3F4F9A
:1011A0003F8F2E8F2230310588F18CDF882371F13B
:1011B0001F8E1E8E609178008091790070E0782BF0
:1011C000EC8DFD8D3196EE0FFF1FEC0FFD1F808122
:1011D0009181A7DFEC8DFD8D3196EE0FFF1FEC0F97
:1011E000FD1F808191813EDF8C8D9D8D01966A8DE2
:1011F0007B8D0E949B279D8F8C8FFC013196EE0F7B
:10120000FF1FEC0FFD1F80819181C8DE80917A0065
:10121000806480937A00DF91CF9108952AE432E0D0
:10122000FC01318320836EEF809650CECF93DF9305
:10123000FC01A28DB38DAC30B105DCF0C0911E0273
:10124000D0911F028A899B89DC01ED91FC91028477
:10125000F385E02D62E571E019958A8D9B8DDC01A7
:10126000ED91FC910280F381E02D68EE73E0199519
:10127000E9CF1196AA0FBB1FA80FB91F6D937C93DE
:101280002FB7F894828D938D0196938F828F2FBF05
:10129000828D938D019751F4809164008E7F8093AD
:1012A000640080917A00806880937A00DF91CF910A
:1012B0000895A1E0B0E0EFE5F9E00C949C288C01E2
:1012C00083E190E0698362DB7C016981FFDDB70126
:1012D000C801ACDFC7012196E6E00C94B8286E3F48
:1012E000710511F480960895E4CFA6E0B0E0EBE735
:1012F000F9E00C949E288C01E0911E02F0911F02EF
:10130000828D938DDC01ED91FC910484F585E02DB7
:1013100040EB58E060E070E04B835C836D837E833C
:101320001A830983BE016F5F7F4F1995B801605E14
:101330007F4FC8017BDF2696E4E00C94BA288096A4
:1013400051CD089570E0FB01ED50FD4F9491FB01EC
:10135000E65CFC4FE491EE23A1F0F0E0EE0FFF1FFE
:10136000EB54FC4FA591B4912FB7411105C0F894EF
:101370008C919095892303C0F8948C91892B8C9340
:101380002FBF0895603118F486E3860F08958FEF1C
:10139000089570E0FB01ED50FD4F8491FB01E65C88
:1013A000FC4FE491EE2359F0F0E0EE0FFF1FEF57F2
:1013B000FC4FA591B4919C91982381E009F480E0C1
:1013C000089570E0FB01ED50FD4F9491FB01E65C48
:1013D000FC4FE491EE2391F0F0E0EE0FFF1FE55695
:1013E000FC4FA591B4912FB7F8948C91411103C093
:1013F0009095892301C0892B8C932FBF089570E0AD
:10140000FB01ED50FD4F9491FB01E65CFC4FE49134
:10141000EE2369F0F0E0EE0FFF1FE556FC4FA591BB
:10142000B4912FB7F8948C9189278C932FBF08958E
:10143000DC0112962C9112971396EC91F0E0EE0FCE
:10144000FF1FEB54FC4FA591B4919FB7611105C0EC
:10145000F8948C912095822303C0F8948C91822B70
:101460008C939FBF0895DC011396EC91F0E0EE0F92
:10147000FF1FEF57FC4FA591B4912C91FC01828185
:10148000282381E009F480E00895DC0112962C9174
:1014900012971396EC91F0E0EE0FFF1FE556FC4F0C
:1014A000A591B4919FB7F8948C91611103C02095D8
:1014B000822301C0822B8C939FBF0895DC0112967A
:1014C0002C9112971396EC91F0E0EE0FFF1FE5566A
:1014D000FC4FA591B4919FB7F8948C9182278C937F
:1014E0009FBF0895CF93DF93EC01E881F9810280DB
:1014F000F381E02D40E067E11995E881F9810480EE
:10150000F581E02D67E1CE01199591E0811190E020
:10151000892FDF91CF910895CF93DF93FB01ED5099
:10152000FD4FD491FB01E65CFC4FC491CC2389F0C4
:1015300084E090E02BDADC018EE692E011969C9339
:101540008E931296DC9312971396CC931397CD013A
:1015500002C080E090E0DF91CF910895243048F5FB
:10156000663091F49FB7F8945093B5104093B4103F
:1015700080916A0040E1249F900111248F7C822B8E
:1015800080936A00EE9A12C0603199F49FB7F89484
:101590005093B1104093B0108091680084608093A4
:1015A000680080916D00816080936D009FBF81E035
:1015B000089580E008951F920F920FB60F921124A4
:1015C0000BB60F922F933F934F935F936F937F933D
:1015D0008F939F93AF93BF93EF93FF93E091B410DA
:1015E000F091B510309709F01995FF91EF91BF91E7
:1015F000AF919F918F917F916F915F914F913F91AB
:101600002F910F900BBE0F900FBE0F901F9018954B
:101610001F920F920FB60F9211240BB60F922F93B9
:101620003F934F935F936F937F938F939F93AF936A
:10163000BF93EF93FF93E091B210F091B310309706
:1016400009F01995FF91EF91BF91AF919F918F9103
:101650007F916F915F914F913F912F910F900BBEB2
:101660000F900FBE0F901F9018951F920F920FB6FC
:101670000F9211240BB60F922F933F934F935F93CA
:101680006F937F938F939F93AF93BF93EF93FF934A
:10169000E091B010F091B110309709F01995FF91D9
:1016A000EF91BF91AF919F918F917F916F915F91DA
:1016B0004F913F912F910F900BBE0F900FBE0F9047
:1016C0001F9018950895089580E090E0089508957A
:1016D00080E0089580E008950F931F93CF93DF93E8
:1016E000EC018A8D9B8DDC01ED91FC910190F081E4
:1016F000E02D64ED70E119958A819B81DC01ED910B
:10170000FC91008CF18DE02D00E810E020E830E045
:1017100040E052EC61E070E019958E899F89DC0110
:10172000ED91FC910190F081E02D64ED70E119954F
:10173000888D998DDC01ED91FC910190F081E02D77
:1017400060E070E019958C859D85DC01ED91FC9140
:101750000190F081E02D60E070E019958A859B850D
:10176000DC01ED91FC910190F081E02D19958A85C5
:101770009B85DC01ED91FC910480F581E02D64E610
:1017800070E019958E859F85DC01ED91FC910190AB
:10179000F081E02D60E070E01995709A5A9AE2E0CD
:1017A000F1E0808181608083DF91CF911F910F9163
:1017B000089548C408951F920F920FB60F921124F6
:1017C0000BB60F922F938F939F93EF93FF9390916C
:1017D000C6008091DD118F5F2091DF11822320915F
:1017E000DE11821759F02091DD11E091E011F091A6
:1017F000E111E20FF11D90838093DD11FF91EF91D4
:101800009F918F912F910F900BBE0F900FBE0F9055
:101810001F9018951F920F920FB60F9211240BB6BE
:101820000F928F939F93EF93FF939091CA118091A2
:10183000C9119817A1F08091CA11E091CC11F091D3
:10184000CD11E80FF11D80818093C6008091CA11EF
:101850008F5F9091CB1189238093CA110BC0909117
:10186000C9118091CA11981305C08091C1008F7D64
:101870008093C100FF91EF919F918F910F900BBECC
:101880000F900FBE0F901F9018951F920F920FB6DA
:101890000F9211240BB60F922F938F939F93EF9378
:1018A000FF939091CE008091E2118F5F2091E4111F
:1018B00082232091E311821759F02091E211E091E7
:1018C000E511F091E611E20FF11D90838093E21192
:1018D000FF91EF919F918F912F910F900BBE0F90E1
:1018E0000FBE0F901F9018951F920F920FB60F9278
:1018F00011240BB60F928F939F93EF93FF939091C8
:10190000CF118091CE119817A1F08091CF11E09165
:10191000D111F091D211E80FF11D80818093CE009A
:101920008091CF118F5F9091D01189238093CF1137
:101930000BC09091CE118091CF11981305C080916A
:10194000C9008F7D8093C900FF91EF919F918F9186
:101950000F900BBE0F900FBE0F901F9018951F9207
:101960000F920FB60F9211240BB60F922F938F93F5
:101970009F93EF93FF939091D6008091E7118F5F33
:101980002091E91182232091E811821759F02091CA
:10199000E711E091EA11F091EB11E20FF11D908354
:1019A0008093E711FF91EF919F918F912F910F906D
:1019B0000BBE0F900FBE0F901F9018951F920F92A5
:1019C0000FB60F9211240BB60F928F939F93EF9344
:1019D000FF939091D4118091D3119817A1F0809129
:1019E000D411E091D611F091D711E80FF11D80814B
:1019F0008093D6008091D4118F5F9091D511892367
:101A00008093D4110BC09091D3118091D41198136D
:101A100005C08091D1008F7D8093D100FF91EF911F
:101A20009F918F910F900BBE0F900FBE0F901F9044
:101A30001895FC018CE691E19383828326E531E1E0
:101A40003583248320E431E1378326831186108691
:101A500025E331E13387228729E231E13587248785
:101A600026EF30E13787268724EF30E1318B208B5A
:101A7000938B828B82EF90E1958B848B80EE90E14B
:101A8000978B868B8EED90E1918F808F87ED90E123
:101A9000938F828F85ED90E1958F848F88E892E017
:101AA0009183808308958F92AF92CF92EF92FF92AD
:101AB0000F931F9380E2882E98E9A92ECC24C3941B
:101AC00021ECE22EF12C00EC10E024EC30E045ECAF
:101AD00050E060E08CE691E10E941C1C39ECE32EA2
:101AE000F12C08EC10E02CEC30E04DEC50E061E023
:101AF00086E591E10E941C1C41EDE42EF12C00EDE5
:101B000010E024ED30E045ED50E062E080E491E14A
:101B10000E941C1C8DE391E10E946C168EE892E0FD
:101B200090933611809335118DE391E190933C11A0
:101B300080933B118AE093E090932A1180932911BE
:101B400086EF90E16BDB8AE393E09093F51080934E
:101B5000F41088E592E09093F3108093F2108AEAF3
:101B600092E09093E1108093E0108CEB92E09093E0
:101B7000DF108093DE1087ED90E160D78AE792E076
:101B80009093D6108093D51086EB90E152DF1F9191
:101B90000F91FF90EF90CF90AF908F900895FC0140
:101BA000758364830895FC0183810895FC01868117
:101BB00097810895589A599AE9EBF0E020812E7F99
:101BC000208320812D7F2083DC01ED91FC91068014
:101BD000F781E02D61E0199585E48093BC000895BC
:101BE0001092BC000895662311F08CE001C088E4D7
:101BF0008093B8000895A1E0B0E0E1E0FEE00C942D
:101C00009E282983DC01ED91FC910484F585E02D6B
:101C10008E010F5F1F4F21E019952196E4E00C948F
:101C2000BA280F931F93DC01ED91FC910288F38990
:101C3000E02D890121E019951F910F910895ECEB9A
:101C4000F0E0108225E42083FC0123812F5F2383B1
:101C50000895A0E0B0E0EFE2FEE00C949628EC01DD
:101C600000911E0210911F02D8015A968D919C91ED
:101C70005B97DC01ED91FC910480F581E02D1995D5
:101C80006B017C018C819D81892B31F48091BC009A
:101C900087FFFCCF80E01FC08091BC0087FDFACF9A
:101CA000F801828D938DDC01ED91FC910480F5812A
:101CB000E02D19956C197D098E099F092C813D81B4
:101CC0004901A12CB12C681579058A059B0520F3E3
:101CD000CE01B5DF81E0CDB7DEB7ECE00C94B228E1
:101CE00024EA2093BC00B5DF81110FC08091B900B8
:101CF000887F883029F08091B900887F803111F485
:101D000080E008958091B900887F08956093BB00BA
:101D100024E82093BC009DCF6093BB0024E820936F
:101D2000BC0097DF81110AC08091B900887F88329A
:101D300021F08091B900887F089580E0089566239E
:101D400011F024EC01C024E82093BC0082DF811153
:101D500003C08091B900887F0895A0E0B0E0E3EB74
:101D6000FEE00C949628EC0100911E0210911F02D7
:101D7000D8015A968D919C915B97DC01ED91FC9175
:101D80000480F581E02D19956B017C018C819D818A
:101D9000892B31F48091BC0084FDFCCF80E01FC012
:101DA0008091BC0084FFFACFF801828D938DDC0115
:101DB000ED91FC910480F581E02D19956C197D0958
:101DC0008E099F092C813D814901A12CB12C6815F8
:101DD00079058A059B0520F3CE0131DF81E0CDB77F
:101DE000DEB7ECE00C94B22824E92093BC00B5CF18
:101DF000A1E0B0E0EEEFFEE00C9498285C01E42E48
:101E0000F22ED32E69836CDF6981811118C0660FB1
:101E1000C5017CDF811113C0CF2C0F2D1D2D802F0C
:101E20008C198E1540F4F80161918F01C50174DFA2
:101E30008823A9F304C0C501D7DF882321F0F50169
:101E400093819F5F93832196EAE00C94B428A1E0EC
:101E5000B0E0EDE2FFE00C9498285C01F42ED22E65
:101E600069833EDF698181111CC0660FC5014EDFA9
:101E7000811117C06F2DC5014FDF811112C0C02E17
:101E800078018E2D8C198D1540F4F70161917F0139
:101E9000C50142DF8823A9F304C0C501A5DF88235B
:101EA00039F0F5019281911103C093819F5F938373
:101EB0002196EAE00C94B428A1E0B0E0E2E6FFE06D
:101EC0000C9498285C01F42EE22EC32E411102C01E
:101ED000FF24F394C501698303DF6981811127C061
:101EE000660F6F5FC50112DF811121C0DE2C0E2D40
:101EF0001C2DEE24EA94EF0C802F8D198F1598F489
:101F00008E1106C060E0C5011ADF883531F00FC0C0
:101F100061E0C50114DF803551F48091BB00F80108
:101F200081938F01E9CFC5015FDF882321F0F5019F
:101F300093819F5F93832196EAE00C94B428A0E0FC
:101F4000B0E0E5EAFFE00C949A28EC01F62EE42ECE
:101F5000D22E211102C0DD24D394CE01C1DE811125
:101F600034C0FF0C6F2DCE01D1DE81112EC06E2D3D
:101F7000CE01D2DE811129C0CE01B2DE811125C091
:101F800061E06F0DCE01C2DE81111FC0C02E78014D
:101F90000FEF0D0D8E2D8C198D1598F4801306C042
:101FA00060E0CE01CCDE883531F00FC061E0CE01BB
:101FB000C6DE803551F48091BB00F70181937F012B
:101FC000E9CFCE0111DF882319F09B819F5F9B83AE
:101FD000CDB7DEB7E8E00C94B628A0E0B0E0E3EFC0
:101FE000FFE00C94A028CE01E2E00C94BC28F5DFC1
:101FF00020918211309183118217930730F4089752
:102000008C7F90938311809382110895E6DF9093E3
:10201000831180938211EBDF2091C5123091C6129B
:10202000E0918211F091831187E699E1A2E0B8E294
:1020300034972E173F0728F480839183A283B383BC
:10204000F7CF0895D4DF8091C5129091C612E09128
:102050008211F091831140815181628173814736F1
:1020600059416240784249F4F0938311E093821120
:102070009F01281B390BC90108958E179F07A0F7F0
:102080003497E9CF209126013091270140918511A5
:1020900050918611C9012417350710F4805C9346CE
:1020A000841B950B4091841181345FE1950738F0D2
:1020B000453010F0409387111092841111C04830C0
:1020C00078F4E42FF0E0EE0FFF1FE857FE4E918307
:1020D00080834F5F40938411483011F440938711FF
:1020E000309386112093851108958091871108956A
:1020F000CF93493008F048E0CFB7F894FB0120E0D7
:1021000030E050E0241735076CF4D901AA0FBB1F4B
:10211000A857BE4E0D90BC91A02DA193B1932F5FF7
:102120003F4FF0CFCFBFDC01FB0120E030E02417B0
:1021300035071CF58081918196958795853368E0F8
:10214000960738F4843863E0960730F464E883E057
:1021500005C064E388E002C0682F892F6083818313
:1021600012968D919C911397009711F09183808323
:102170002F5F3F4F32961296DACF809187111092DF
:102180008711CF910895A0E0B0E0E9ECF0E10C9464
:1021900099287C01EB0100E010E0B12CC42ED12C79
:1021A0000C151D057CF449915991D701ED91FC91D5
:1021B0000284F385E02D602FC7011995B82A0F5FBF
:1021C0001F4FEECF8B2DCDB7DEB7E9E00C94B528CD
:1021D00057FF02C080E008956830E0F7FC01E60F89
:1021E000F11DE60FF11D53834283452B99F381E0E6
:1021F00080938711089520E030E0FC01E20FF31F87
:10220000138212822E5F3F4F20313105B1F70895BE
:10221000CF93DF93EC01CB0142E450E162E070E048
:102220000E945923E881F9810484F585E02DCE01CF
:102230001995E0911E02F0911F0284899589DC01B5
:10224000ED91FC910280F381E02D40E060E319956F
:102250002FB7F89410922501109224011ABA83E046
:1022600080932001E1E2F1E080818A6580838FE341
:102270009CE990932901809328018FEF9FEF909321
:102280002B0180932A0190932D0180932C01E3E789
:10229000F0E08081806280832FBFDF91CF9108952D
:1022A000683078F54FB7F894E62FF0E0DF01AA0F19
:1022B000BB1FA857BE4E2D913C914FBF1092871166
:1022C00036952795253348E0340738F4243843E021
:1022D000340730F454E843E005C054E348E002C05A
:1022E000522F432F3196EE0FFF1FE80FF91F208169
:1022F00031812115310511F0522F432F852F942F55
:10230000089580E090E00895A0E0B0E0EAE8F1E10F
:102310000C949A28C0911E02D0911F028C899D892D
:10232000DC01ED91FC910280F381E02D41E06CE055
:1023300019958C899D89DC01ED91FC910280F381D6
:10234000E02D41E06BE0199582E0C82EC09280003C
:102350009AE1D92ED092810020E4E22E2CE9F22ECF
:10236000F0928700E09286000FEF1FEF1093890034
:102370000093880010938B0000938A008C899D89BC
:10238000DC01ED91FC910280F381E02D41E068E0F9
:1023900019958C899D89DC01ED91FC910280F38176
:1023A000E02D41E067E019958C899D89DC01ED9174
:1023B000FC910280F381E02D41E066E01995C09226
:1023C000A000D092A1001093A9000093A800109340
:1023D000AB000093AA001093AD000093AC00F09204
:1023E000A700E092A6008C899D89DC01ED91FC910B
:1023F0000280F381E02D41E063E019958C899D898D
:10240000DC01ED91FC910280F381E02D41E062E07E
:1024100019958C899D89DC01ED91FC910280F381F5
:10242000E02D41E065E01995C0929000D0929100B6
:10243000109399000093980010939B0000939A00CA
:1024400010939D0000939C00F0929700E0929600FC
:102450008C899D89DC01ED91FC910280F381E02D56
:1024600041E06DE219958C899D89DC01ED91FC912B
:102470000280F381E02D41E06CE21995CDB7DEB723
:10248000E8E00C94B628CF92DF92EF92FF926A01B7
:102490007B0140E050E060E874E88EE190E00E944B
:1024A000AE27D701C60183709927AA27BB27892B9E
:1024B0008A2B8B2B21F03093870020938600D70145
:1024C000C6018C719927AA27BB27892B8A2B8B2BB6
:1024D00021F03093A7002093A60080EEC822DD24CF
:1024E000EE24FF24CD28CE28CF2821F0309397006A
:1024F00020939600FF90EF90DF90CF900895862F65
:1025000090E08B30910510F5FC01EE58FF4F0C94D4
:10251000C72820918600309187000EC02091A60028
:102520003091A70009C0209196003091970004C017
:10253000209128013091290140E050E060E874E8E2
:102540008EE190E00E94AE27C901089580E090E0FE
:102550000895862F90E08B309105A0F5FC01E3589B
:10256000FF4F0C94C72880918000806203C0809147
:10257000800080688093800008958091A00088602A
:1025800007C08091A000806203C08091A000806895
:102590008093A000089580919000886007C080918A
:1025A0009000806203C080919000806880939000CA
:1025B000089580912001806203C08091200188608D
:1025C000809320010895862F90E08B309105A0F52F
:1025D000FC01E857FF4F0C94C728809180008F7D45
:1025E00003C0809180008F77809380000895809150
:1025F000A000877F07C08091A0008F7D03C08091DD
:10260000A0008F778093A000089580919000877F2D
:1026100007C0809190008F7D03C0809190008F77DC
:10262000809390000895809120018F7D03C0809158
:102630002001877F809320010895453388E0580763
:1026400038F4443883E0580728F444E853E002C0E3
:1026500044E358E0440F551F862F90E08B309105DE
:10266000B0F5FC01ED56FF4F0C94C72850938B003A
:1026700040938A00089550938900409388000895FC
:102680005093AD004093AC0008955093AB0040933D
:10269000AA0008955093A9004093A800089550936C
:1026A0009D0040939C00089550939B0040939A0096
:1026B00008955093990040939800089550932B01EA
:1026C00040932A01089550932D0140932C010895C1
:1026D000A0E0B0E0EEE6F3E10C9499287C01B62E80
:1026E000EA0100E010E0C22ED12C0C151D057CF48F
:1026F00049915991D701ED91FC916B2D600F0284A6
:10270000F385E02DC70119950F5F1F4FEECFCDB7B1
:10271000DEB7E9E00C94B528862F90E08B30910568
:10272000B8F5FC01E256FF4F0C94C72880918A004F
:1027300090918B002FC080918800909189002AC0D1
:102740008091AC009091AD0025C08091AA0090913D
:10275000AB0020C08091A8009091A9001BC080917F
:102760009C0090919D0016C080919A0090919B00D2
:1027700011C080919800909199000CC080912A011D
:1027800090912B0107C080912C0190912D0102C0E6
:1027900080E090E0969587950895A0E0B0E0E3EDA5
:1027A000F3E10C949A287C01EB0100E010E0C42EC8
:1027B000D12C0C151D0574F4D701ED91FC91068404
:1027C000F785E02D602FC7011995899399930F5FC5
:1027D0001F4FEFCFCDB7DEB7E8E00C94B6280895D1
:1027E0000895FC01738362835583448308951F9386
:1027F000CF93DF93EB0110919811212F30E0E9E99D
:10280000F1E180E090E082179307E4F46081718148
:102810004881598164177507A1F5A281B3814A8166
:102820005B81A417B50769F5648175814C815D8171
:102830006417750749F1AB2B21F5462B572B40FD4B
:1028400020C022C0143000F586E0829FF001839FF3
:10285000F00D1124E756FE4E8A819B81AC81BD812B
:1028600082839383A483B5838881998191838083B4
:102870009FB7F894809198118F5F809398119FBFB4
:1028800003C001963696BFCFDF91CF911F91089577
:1028900008957093B5116093B411089581E0809309
:1028A000B31108958091B1110895FC01968181E0E2
:1028B00089270895CF93DF93EC018E81882349F017
:1028C000E881F981048CF58DE02D6DE971E0CE0190
:1028D000199581E08E83DF91CF9108958B0181E07E
:1028E0008093B311C0911E02D0911F028A819B81F7
:1028F000DC01ED91FC910484F585E02D19958E8124
:102900009F81DC01ED91FC910484F585E02DB801F7
:102910001995FFCFC0911E02D0911F028A819B8121
:10292000DC01ED91FC910484F585E02D63E871E014
:1029300019958A8D9B8DDC01ED91FC910280F381CC
:10294000E02D64E670E01995F89428E088E190E0C5
:102950000FB6F894A895809360000FBE2093600096
:10296000FFCF693E83E0780730F46A3F710528F4B1
:102970006AEF70E002C068EE73E088EE93E00E94B8
:10298000872782EC689F602D1124609306020895CA
:10299000CF93DF93EB01E3D0E0E7F0E010821092F9
:1029A000B00086E08093B1001092B20081E087BB56
:1029B00080834EE855E160E070E0CE010E9459232B
:1029C000789424DBDF91CF9108952EC10895A0E083
:1029D000B0E0EDEEF4E10C949A288C01EB0124D1E7
:1029E0006B017C01209709F11FD16C197D098E09BB
:1029F0009F09683E73408105910550F0219720970B
:102A000039F028EEC20E23E0D21EE11CF11CECCFFF
:102A1000F80184819581C817D90720F30280F381DA
:102A2000E02D3097F9F21995DDCFCDB7DEB7E8E0AC
:102A30000C94B6281CC10895CB013EC1FC0186ED63
:102A400092E091838083138212828FEF9FEF9583B0
:102A50008483168208950F931F93CF93DF939091F1
:102A6000B111992349F0E091B411F091B51130976B
:102A700009F444C0199542C091E09093B11120919E
:102A8000B31121112FC0C9E9D1E100E010E080911C
:102A9000981190E00817190744F5888199810097EB
:102AA00039F42A813B81232B19F42C8120FF16C095
:102AB000EA81FB814C815D819A013595279540FF24
:102AC0000AC0DC01A20FB31F0D90BC91A02DAE0F68
:102AD000BF1FED91FC91820F931F19950F5F1F4F40
:102AE0002696D5CF81119093B211E091B411F09157
:102AF000B511309709F019951092B111DF91CF916E
:102B00001F910F9108951092B3118091B2118823F3
:102B100021F080E0A0DF1092B211089580910602AA
:102B20008093B200789481E096CF10929A1110921F
:102B3000991110929C1110929B1110929E1110925B
:102B40009D11EFE9F1E11182108213821282158248
:102B50001482369681E1E13BF807A9F708952FB773
:102B6000F89410922501109224011ABA83E0809300
:102B70002001E1E2F1E080818A6180838FE39CE9BA
:102B80009093290180932801E3E7F0E08081816040
:102B90008083EAE7F0E080818460808380818260C6
:102BA00080838081816080838081806880831092AF
:102BB000C1002FBF08951F920F920FB60F921124DC
:102BC0008F939F93AF93BF938091BA119091BB1154
:102BD000A091BC11B091BD11805E914BAF4FBF4F22
:102BE0008093BA119093BB11A093BC11B093BD1107
:102BF0008091B6119091B711A091B811B091B9110F
:102C00004496A11DB11D8093B6119093B711A09366
:102C1000B811B093B911BF91AF919F918F910F905F
:102C20000FBE0F901F9018954FB7F8948091BA116E
:102C30009091BB11A091BC11B091BD1120912401C4
:102C400030912501D09B04C02F335CE9350750F04B
:102C50004FBF36952795BC01CD01620F731F811DB3
:102C6000911D0895805E914BAF4FBF4FF1CF4FB78D
:102C7000F8948091B6119091B711A091B811B091CC
:102C8000B9112091240130912501D09B04C02F332C
:102C90005CE9350768F04FBF232F3327269526952B
:102CA0002695BC01CD01620F731F811D911D0895F2
:102CB0004496A11DB11DEFCF0197009739F0880F01
:102CC000991F880F991F02970197F1F70895FC014A
:102CD000828181111282089520E033E0FC0131836A
:102CE0002083128208952FB7F894FC0132813111AC
:102CF00004C031E0328381E001C080E02FBF08953D
:102D0000A4E0B0E0E6E8F6E10C949A288C0149834F
:102D10005A836B837C83E7DF49815A816B817C8195
:102D2000811128C0411551056105710529F18AE01D
:102D3000849F6001859FD00C1124E0901E02F090CA
:102D40001F02D7015A968D919C915B97DC01ED9102
:102D5000FC910084F185E02D64E670E01995B1E006
:102D6000CB1AD108C801BFDF811104C0C114D1043E
:102D700041F702C081E001C080E02496E8E00C94B5
:102D8000B628A4E0B0E0E7ECF6E10C949C288C01B6
:102D9000E0901E02F0901F02D7015A968D919C91EF
:102DA0005B97DC01ED91FC910488F589E02D498366
:102DB0005A836B837C83199549815A816B817C810D
:102DC000882371F0F701828D938DDC01ED91FC91E8
:102DD000048CF58DE02D67ED71E0199580E002C05F
:102DE000C8018EDF2496E6E00C94B828CF93DF93D9
:102DF000EC01E0911E02F0911F02828D938DDC01A7
:102E0000ED91FC910488F589E02D1995882319F03E
:102E1000CE0169DF05C040E050E0BA01CE0170DFAD
:102E2000DF91CF9108950895FC0163307105B1F0F1
:102E30004CF46115710579F062307105A9F4848153
:102E4000958108956430710561F06530710561F414
:102E500082859385089580859185089582819381E7
:102E6000089586819781089580E090E00895A0E01C
:102E7000B0E0EDE3F7E10C949828EC0184E090E0F9
:102E80000E94C6048C018EE6E82E82E0F82EF8013E
:102E9000F182E082BB24B394B28292E0A92EA38295
:102EA00088E090E00E94C604FC0122E1C22E23E0EB
:102EB000D22ED182C08213830283A4821582A6827D
:102EC000B7829B838A836FD084E090E00E94C6041F
:102ED0008C01FC01F182E082A28287E0838388E09A
:102EE00090E00E94C604FC01D182C0821383028359
:102EF000A4821582A682B7829D838C8354D084E0FD
:102F000090E00E94C6048C01FC01F182E08288E01E
:102F1000828386E0838388E090E00E94C604FC01FF
:102F2000D182C082138302838DE08483858386836C
:102F3000B782FF83EE83CF0136D084E090E00E9419
:102F4000C6046C01FC01F182E08280E48283B382DA
:102F500087E090E00E94C604FC0136E2E32E33E0F5
:102F6000F32EF182E082D382C2821482168215820D
:102F700099878887D8D187E090E00E94C604FC0139
:102F8000F182E0821383028383E0848383E090E014
:102F900096838583FB87EA87CF01C5D1CDB7DEB79E
:102FA000EAE00C94B4280F931F93CF93DF938C0126
:102FB000C0911E02D0911F028C899D89DC01ED9188
:102FC000FC910280F381E02D40E062E319958C8949
:102FD0009D89DC01ED91FC910280F381E02D41E0BF
:102FE00063E319958C899D89DC01ED91FC91028048
:102FF000F381E02D41E064E31995F801828193812A
:10300000DC01ED91FC910190F081E02D61E01995DA
:10301000F80182819381DC01ED91FC910480F581BE
:10302000E02D61E0199580E58CBDDF91CF911F9176
:103030000F91089580EC91E10895FC0161307105D4
:1030400029F4858186831092BF1108958481868337
:1030500081E08093BF110895FC018091BF11882306
:1030600011F0848186839CB586818F70907F892B37
:103070008CBD8DB5978190FB80F98DBD8281938148
:10308000DC01ED91FC910480F581E02D60E0199563
:103090000895E2CF0895DC0112968D919C911397CB
:1030A000DC01ED91FC910480F581E02D61E0199542
:1030B0000895F1CF0895CF93C62F8091BE11882334
:1030C00079F0E0911E02F0911F02828D938DDC0158
:1030D000ED91FC91048CF58DE02D6CE272E0199578
:1030E00081E08093BE11CEBD0DB406FE11C0E0910B
:1030F0001E02F0911F02828D938DDC01ED91FC91F7
:10310000048CF58DE02D60E172E0199580E006C039
:103110000DB407FEFDCF8EB51092BE11CF9108956C
:10312000EF92FF920F931F93CF93DF937C018A015D
:10313000EB01060F171FC017D10721F06991C701D6
:10314000BADFF9CFCDB7DEB7E6E00C94B828B3CF3D
:103150000895FB01DA0181E08093BE1180818EBD6C
:103160000DB407FEFDCF8EB58C9381818EBD0DB45D
:1031700007FEFDCF8EB511968C93119782818EBD7F
:103180000DB407FEFDCF8EB512968C9312978381F6
:103190008EBD0DB407FEFDCF8EB513968C9313979D
:1031A00084818EBD0DB407FEFDCF8EB514968C9331
:1031B000149785818EBD0DB407FEFDCF8EB5159693
:1031C0008C93159786818EBD0DB407FEFDCF8EB50D
:1031D00016968C93169787818EBD0DB407FEFDCF92
:1031E0008EB517968C93179780858EBD0DB407FE0C
:1031F000FDCF8EB518968C93189781858EBD0DB432
:1032000007FEFDCF8EB519968C93199782858EBDDA
:103210000DB407FEFDCF8EB51A968C931A97838551
:103220008EBD0DB407FEFDCF8EB51B968C931B97FC
:1032300084858EBD0DB407FEFDCF8EB51C968C9394
:103240001C9785858EBD0DB407FEFDCF8EB51D96EE
:103250008C931D9786858EBD0DB407FEFDCF8EB570
:103260001E968C931E9787858EBD0DB407FEFDCFED
:103270008EB51F968C931092BE110895A0E0B0E019
:10328000E4E4F9E10C949828EC015B016A0179010E
:10329000E3DEC114D10419F000E010E013C0850191
:1032A000EA0CFB1C0E151F0531F0F80161918F012E
:1032B000CE0101DFF7CFCE01EEDECDB7DEB7EAE01B
:1032C0000C94B428A601400F511FB501600F711F67
:1032D000C701801B910B409728F0CE013ADF005FB9
:1032E0001F4FF0CFC701807F8501080F191FC80E3F
:1032F000D91EFFE0EF22FF24E00EF11E0E151F0580
:10330000D1F2F80161918F01CE01D5DEF6018193F2
:103310006F01F4CF80EC91E1DFCC83EC91E1DCCC68
:1033200086EC91E10895A4E0B0E0E9E9F9E10C94BC
:103330009C288C018EE692E09A83898384E08B83BB
:103340008AE08C8361E0CE0101960E94180AE09029
:103350001E02F0901F02D70154968D919C915597B3
:10336000DC01ED91FC910280F381E02D41E06EE003
:103370001995F70184899589DC01ED91FC91028012
:10338000F381E02D40E06FE0199580EC80933201ED
:1033900088E180933101F80182819381DC01ED9114
:1033A000FC910190F081E02D61E01995F801828196
:1033B0009381DC01ED91FC910480F581E02D61E0C9
:1033C00019952496E6E00C94B828FC01A2E3B1E03C
:1033D0009C9184818770987F892B8C9385819681BD
:1033E000909335018093340182819381DC01ED91CA
:1033F000FC910480F581E02D60E019950895E5CFFA
:103400000895DC0112968D919C911397DC01ED914A
:10341000FC910480F581E02D61E019950895F1CFCC
:1034200008958091300185FFFCCF60933601809133
:10343000300187FFFCCF809136010895F2CF0895C7
:10344000FB01460F571FE417F50771F0809130011B
:1034500085FFFCCF8191809336018091300187FFF9
:10346000FCCF80913601EFCF0895A2E0B0E0EBE30E
:10347000FAE10C9498288C017A01690169837A83B6
:10348000A4DF69817A81E114F10421F05B01CA0CA7
:10349000DB1C04C0A601C801D3DF0CC0AC14BD0402
:1034A00049F0F50161915F01C801BBDFF70181932C
:1034B0007F01F4CFC801A5DF2296EAE00C94B4287E
:1034C000BFCF089586EC91E107CC0895A2E0B0E06B
:1034D000ECE6FAE10C94A0285A834983DC01ED91D3
:1034E000FC910088F189E02D22E030E0AE014F5FD1
:1034F0005F4F19952296E2E00C94BC28A4E0B0E05E
:10350000E4E8FAE10C94A02829833A834B835C8396
:10351000DC01ED91FC910088F189E02D24E030E0A0
:10352000AE014F5F5F4F19952496E2E00C94BC28E2
:10353000A0E0B0E0EEE9FAE10C949A286C018B016E
:103540007901E40EF51EEA01041B150BB8016C0F9E
:103550007D1FCE15DF0551F04991D601ED91FC910B
:103560000284F385E02DC6011995F0CFCDB7DEB703
:10357000E8E00C94B628CB010C94CD2ACB010C9436
:10358000DA2ACB010C94D52ACB01BA01A9010C94FB
:10359000BD2AA1E0B0E0EFECFAE10C949E288B018B
:1035A000CB0149830E94CD2A4981841721F0642FE1
:1035B000C8010E94DF2A2196E4E00C94BA280F93F8
:1035C0001F93DC01ED91FC91008CF18DE02D00E06A
:1035D00010E020E030E019951F910F910895FC0153
:1035E0008481089521E06227FC01658B0895DC0148
:1035F0005296ED91FC9153972081918181E029139E
:1036000001C080E00895DC0154962C915497222348
:1036100071F05096ED91FC9151978081218190E05D
:10362000821B9109228130E08223932308958FEF3A
:103630009FEF0895DC0154962C915497222391F02A
:103640005296ED91FC915397428150E02081618127
:10365000CA01019630E0261B310924233523821B41
:10366000930B08958FEF9FEF0895DC0154962C91F2
:103670005497222341F05096ED91FC9151979081FF
:103680008181981303C08FEF9FEF08958181A381FB
:10369000B481A80FB11D8C9191819F5F22819223EB
:1036A000918390E00895DC015096ED91FC91519743
:1036B000218120835296ED91FC91539780818183E3
:1036C0000895FC018489882359F1A289B3898C91DA
:1036D0008F5F12969C91129789239589911106C04C
:1036E00011969C9111978917D9F306C011969C9158
:1036F00011978913F5CF14C09C9113960D90BC912E
:10370000A02DA90FB11D6C93A289B3898C93A385B9
:10371000B4858C919785892B8C9381E090E00895F6
:1037200080E090E00895A0E0B0E0E9E9FBE10C94CE
:103730009828EC016B015A018C89882309F473C025
:103740008D89811116C000E010E00A151B0509F4EF
:103750006DC0F60161916F01E881F9810190F081FE
:10376000E02DCE011995019709F060C00F5F1F4F42
:10377000ECCFE881F9810680F781E02DCE01199523
:10378000181619060CF04FC08C01A816B90608F4DB
:103790008501EA89FB893181208183819481231706
:1037A00060F42081A801B601820F911D0E94A22A17
:1037B000EA89FB898081800F2CC04081228130E022
:1037C0002F5F3F4F241B310978012017310708F480
:1037D00079012081A701B601820F911D0E94A22AC2
:1037E000EA89FB8980818E0D92818923808358012B
:1037F000AE18BF0889F0EA89FB89B6016E0D7F1DFE
:10380000A501838194810E94A22AEA89FB89808193
:103810008A0D928189238083EB85FC8580819F8539
:10382000892B808303C080E090E001C0C801CDB740
:10383000DEB7EAE00C94B4288F92AF92CF92EF9269
:10384000FF920F931F93CF93DF93CDB7DEB7FC01A9
:103850001382128280E593E09183808356834583AF
:103860003087278312870187F486E386C586A6867C
:10387000878685E0689FB0011124CB0183529E4E5C
:10388000918B808B67537E4E738B628B81E0848338
:1038900040E051EE60E070E0CF0191DEDF91CF912A
:1038A0001F910F91FF90EF90CF90AF908F90089560
:1038B0001F93CF93DF93EC0119821882E1E041E07E
:1038C00050E0CA010E2E02C0880F991F0A94E2F739
:1038D0009B016130F1E07F0710F020E031E08217BA
:1038E000930710F4EF5FEDCF1FEF180F8B819C81D2
:1038F000009729F02A81211779F00E94052A1A835E
:10390000812F90E001960E946D299C838B8321E09A
:10391000892B19F420E001C021E0822FDF91CF91A3
:103920001F910895A0E0B0E0E8E9FCE10C9498282C
:10393000EC016A017B0159018C89882309F486C056
:10394000E889F9892115310529F4A280B12C8FEF7E
:10395000A81AB80A0115110539F4AA89BB8912966B
:103960000C9110E00F5F1F4F828190E00196A81626
:10397000B90691F4EA89FB89828190E001960817E3
:10398000190751F4EB85FC8590818F852E85822B5C
:103990008095892380831BC0E881F981028CF38D97
:1039A000E02DCE011995B5018889998981DF882399
:1039B00009F453C00115110519F460E170E001C06C
:1039C000B8018A899B8974DF882309F446C0EA8993
:1039D000FB8911821082E889F9891182108281E0C5
:1039E0008C8BC114D104E104F10449F1E985FA8515
:1039F000C11481EED806E104F104B9F181E090E050
:103A00000D8402C0880F991F0A94E2F7808360E05A
:103A100079E08DE390E0A70196010E94AE27215046
:103A20003109410951095695479537952795922FA8
:103A3000832FED81FE818083EF81F8859083EB8574
:103A4000FC8580819E85892B808313C021153105DB
:103A500009F0A9CF64E070E0A7CFE881F981028C7A
:103A6000F38DE02DCE01199504C0108290E180E025
:103A7000E0CFCDB7DEB7EAE00C94B428CF93DF9364
:103A8000EC01198218821A828B819C81009721F0A7
:103A90000E94052A1C821B82DF91CF910895CF934B
:103AA000DF93EC01EB85FC8590818F852E85822B41
:103AB00080958923808388899989E0DF8A899B8919
:103AC000DDDF1C8ADF91CF910895A3E1B0E0EBE642
:103AD000FDE10C9490286B017C0169837A838B83D0
:103AE0009C833A01502EE894E7F8FF24422E87E0A9
:103AF000821710F447E0442E1C81A12FAA1FAA2789
:103B0000AA1FAD83110F8B8187FD1F5F111113C099
:103B1000C114D104E104F104F1F48D818260F30158
:103B2000808380E090E3F301E80FF11D91838F5FC4
:103B30004816C8F705C11F3F61F4C114D104E10460
:103B4000F10421F4FD81F460FD8303C08D81886060
:103B50008D836894E7F8812F90E023E09595879511
:103B60002A95E1F7FC01E553FD4F8490FC01EE0F2F
:103B7000FF1FEE0FFF1FE55BFD4F2591359145912E
:103B80005491C701B6010E940828E12FE7700FE0A9
:103B900010E00E1B11090E94E6282F833887498701
:103BA0005A876B877C878D879E87E0E0F0E4BAE7D1
:103BB000BB8BB0E1BF87B3EFB88BBAE5B98B312CC3
:103BC000212C912C1A8A80E38E832F813885498598
:103BD0005A856B857C858D859E855F01CB88DF84CA
:103BE000E888F988032D122D0E94192959016A01CC
:103BF0007B018C01A0E00E94222964F0AE81AF5FBE
:103C0000AE83AF82B886C986DA86EB86FC860D87DE
:103C10001E87DBCF8AE0A82EB12CC12CD12CE12C41
:103C2000F12C00E010E09F014B895F85688979895C
:103C3000832D922D0E94D227F9014B8B5F87688BD1
:103C4000798B382E292EBA89B11113C0AE81A033D9
:103C500011F48A94BACF552059F0A1E0A80D1A1694
:103C60000CF0A1E05A945A0E541418F4452C01C0DB
:103C700043949394BE81BA331CF0892D99E30BC011
:103C80008301090D111DFE80D801FC92941458F493
:103C900081E08A8B98CF882399F1F301E80FF11D19
:103CA00090838150F8CF01E00E94CD2819012A01AC
:103CB000B62FA72FF82FE92F02E00E94CD28590137
:103CC0006A017B018C019101A2016B2F7A2F8F2F4A
:103CD0009E2F0E94042901E00E94E62859016A01F2
:103CE0007B018C012F81388549855A856B857C85C0
:103CF0008D859E850E941929A0E00E942229C4F08A
:103D000090E302C09A949083992091F0F301E90D19
:103D1000F11D80818F5F8A3311F0808309C0A1E09B
:103D20009A12F0CF81E380838394BD81B061BD831B
:103D3000FD80F301F082882D992787FD909502C0C0
:103D400080E090E06396E2E10C94AC28DC01ED9118
:103D5000FC910190F081E02D199508950F931F9328
:103D6000CF93DF93EC016DE0F1DF8C016AE0CE01CF
:103D7000EDDF800F911FDF91CF911F910F9108957B
:103D8000A5E1B0E0E6ECFEE10C9490287C014A014C
:103D90003901262F21702F87CE0101966C01D401A5
:103DA00011969F858D01F401992311F0249101C092
:103DB0002081222309F4EBC3253269F4CD01019659
:103DC000FF85FF2319F0FD01249101C02C918C0186
:103DD0002532D9F40DC02A3059F4D701ED91FC9168
:103DE0000190F081E02D6DE0C7012C8B19952C8995
:103DF000D701ED91FC910190F081E02D622FC70178
:103E00001995530148013501CACFFC0110E0312C4E
:103E100030E04F013032A0F42B3269F030F4203220
:103E200059F0233269F430612CC02D3239F020333F
:103E300039F4316026C03260346023C0386021C05C
:103E400037FD2EC080ED820F8A3078F436FF06C031
:103E5000BAE01B9F800D1124182F13C02AE0329E58
:103E6000800D1124382E30620CC02E3221F436FD24
:103E70008EC3306406C02C3611F4306802C0283678
:103E800079F4AF014F5F5F4F8F85882319F04A01A6
:103E9000249102C020814A01222311F0FA01B9CFF6
:103EA0008BEB820F833018F43061205E06C08BE903
:103EB000820F833008F0E0C13F7E530194E0A90EE9
:103EC000B11CD3014D905D906D907C9036FF16E053
:103ED0003F73232E253621F4B32FB0642B2E08C058
:103EE000263621F4E32FE0682E2E02C01111115066
:103EF00027FE0EC02FE736E948E15BE4C301B201BB
:103F00009F779AD7181624F4F22DFF73F0642F2EA2
:103F100027FE05C01C3340F431E0310F06C01B30D2
:103F200030F4212F30E006C03CE327E003C030E04E
:103F30002AE01AE08DE0D6011D928A95E9F7032F59
:103F4000A601C301B2013D8BC0DD3C0129812E8752
:103F50003D8920FF02C023FF06C021FC06C022FCD1
:103F600006C000E005C00DE203C00BE201C000E2A4
:103F70008E858C7009F440C0002311F084E001C0EC
:103F800083E0831510F0312C0FC0381A23FC0CC0CD
:103F9000D701ED91FC910190F081E02D60E2C70125
:103FA00019953A94A9F7EFCF002349F0D701ED9185
:103FB000FC910190F081E02D602FC70119952E85AD
:103FC00023FD03C00FEE12E002C00BEE12E0822DC3
:103FD0008071282EF8016491662309F4B1C2211082
:103FE0006052D701ED91FC910190F081E02DC70165
:103FF00019950F5F1F4FEECF27FE0EC0360D2E8591
:1040000024FF04C08A81813309F4315013165CF512
:10401000393060F138E02AC026FC28C0812F90E0BA
:10402000861597059CF08CEF68168FEF780674F074
:10403000922D9068292E0AC0E2E0F0E0EC0FFD1FFF
:10404000E10FF11D8081803319F411501111F4CF6B
:1040500027FE0CC031E0310F812F90E06816790601
:1040600024F4161903C031E001C010E027FE06C099
:104070001614170434F4C301019605C085E090E0DE
:1040800002C081E090E001110196112331F0412F2F
:1040900050E04F5F5F4F840F951F432D50E0841712
:1040A000950714F4381A01C0312C822D897079F4E7
:1040B000332069F0D701ED91FC910190F081E02D62
:1040C00060E2C7013D8B19953A943D89F1CF0023F9
:1040D00059F0D701ED91FC910190F081E02D602F16
:1040E000C7013D8B19953D8923FC0FC0332069F032
:1040F000D701ED91FC910190F081E02D60E3C701C3
:104100003D8B19953A943D89F1CF27FE49C0962DF4
:10411000872D77FE02C090E080E0492E582E40E0C7
:1041200050E0F301E31BF109F98BE88B93012419AB
:1041300035092C0D3D1D812F90E000271127081B0C
:10414000190BFFEF4F165F0689F4D701ED91FC9133
:104150000190F081E02D6EE2C7012C8B3D8B4A8BE4
:104160005B8B19955B894A893D892C896414750498
:1041700054F0E889F989E415F5052CF4F901E40F08
:10418000F51F618101C060E3F1E04F1A510840164C
:1041900051060CF4CBC14F5F5F4F6111E7C1C6C13F
:1041A0006A81613319F02E852F7E2E87D701ED911C
:1041B000FC910190F081E02DC701199511110AC001
:1041C000D701ED91FC910190F081E02D24FE1EC0FD
:1041D00065E41DC0D701ED91FC910190F081E02DC7
:1041E0006EE2C701199582E001E0080FD701ED9159
:1041F000FC91D601A80FB11D0190F081E02D6C91CA
:10420000C70119951150E1F2802FEECF65E6C70185
:10421000199577FC06C06114710441F42E8524FFC2
:1042200005C07194619471086DE201C06BE2D70121
:10423000ED91FC910190F081E02DC701199560E3AB
:10424000EAE06E1671042CF06F5FBAE06B1A710829
:10425000F7CFD701ED91FC910190F081E02DC701DE
:104260001995D701ED91FC9160E3660D0190F08105
:10427000E02DC701199564C1233631F0233779F059
:10428000233509F065C021C05301B2E0AB0EB11C6B
:10429000F3018081898301E010E0360114C05301ED
:1042A000F2E0AF0EB11CD3016D907C9036FF03C0DD
:1042B000612F70E002C06FEF7FEFC3013D8B0E9462
:1042C000B22A8C013D893F7715C05301B2E0AB0E95
:1042D000B11CF3016080718036FF03C0612F70E074
:1042E00002C06FEF7FEFC3013D8B0E94972A8C01C4
:1042F0003D893068232E33FF03C0060D171D21C0F2
:10430000832D90E008171907C0F7D701ED91FC91B4
:104310000190F081E02D60E2C70119953A94F0CF49
:10432000D701ED91FC912081318127FE0EC0F30170
:104330006491C701F901199531103A94FFEF6F1A92
:104340007F0A6016710661F7FBC0D3016C91F1CF53
:10435000243611F0293641F5530137FF09C024E016
:10436000A20EB11CD3016D917D918D919C910AC0DB
:10437000B2E0AB0EB11CF30160817181882777FD3B
:104380008095982F032F0F7697FF08C09095809502
:10439000709561957F4F8F4F9F4F00682AE0A6016F
:1043A000F9D0782E7C1837C0032F253719F40F7EEB
:1043B0002AE018C0097F2F3691F018F4283559F0FB
:1043C000E6C0203719F0283711F0E1C0006104FF82
:1043D00008C0046006C034FF04C0066002C028E0C4
:1043E00001C020E1530107FF09C0F4E0AF0EB11C8A
:1043F000D3016D917D918D919C9108C0B2E0AB0E7F
:10440000B11CF3016081718180E090E0A601C2D00F
:10441000782E7C180F7706FF0BC0202F2E7F711689
:1044200050F404FF0AC002FD08C0202F2E7E05C0F4
:10443000672C202F03C0672C01C0612E24FF0DC004
:10444000FE01E70DF11D8081803311F4297E09C042
:1044500022FF06C06394639404C0822F867809F01B
:10446000639423FD17C020FF06C0172D631418F4B2
:10447000130D1619632C631488F4D701ED91FC9188
:104480000190F081E02D60E2C7012C8B19956394B7
:104490002C89F1CF631410F4361801C0312CD701E8
:1044A000ED91FC9124FF16C00190F081E02D60E3B6
:1044B000C7012C8B19952C8922FF1BC0D701ED91C8
:1044C000FC910190F081E02D21FF02C068E50FC052
:1044D00068E70DC0822F867861F021FD02C060E29E
:1044E00001C06BE227FD6DE20190F081E02DC70174
:1044F0001995711658F4D701ED91FC910190F08156
:10450000E02D60E3C70119951150F3CF7A94D701DC
:10451000ED91FC91D601A70DB11D0190F081E02D28
:104520006C91C70119957110F1CF0AC04614570458
:1045300029F48A818633A8F4853381F0611112C091
:10454000332009F460CCD701ED91FC910190F0810A
:10455000E02D60E2C70119953A94F2CF2E8524FD33
:10456000EDCF61E3D701ED91FC9180CED701ED91C4
:10457000FC910190F081E02DC7012C8B3D8B4A8B83
:104580005B8B19952C893D894A895B89DACD6596C3
:10459000E2E1E2C5A0E0B0E0EFECF2E2C6C5FA016C
:1045A000283089F4262F2770205D53E09695879553
:1045B000779567955A95D1F7611571058105910534
:1045C00089F7208371C02031E9F4DA01262F2F709A
:1045D00040E3420F4A3310F047E3420F9D012F5F43
:1045E0003F4FF9014C9344E09695879577956795F1
:1045F0004A95D1F7611571058105910509F454C0FB
:10460000D901E4CF4B015C01C12CD12C7601EA0128
:1046100086EF782EB82D282D2E7F392DA501B601D5
:10462000C701A2E0FAD559016A017B01E82F192FD1
:1046300001E0CED50E2FE8D559016A017B01E82FA4
:10464000192F04E0C5D50E2FDFD559016A017B0172
:10465000E82F192F08E0BCD50E2FD6D559016A01D5
:104660007B01E82F192F00E1B3D50E2FCDD55901CD
:104670006A017B01E82F192F00E2AAD50E2FC4D5BD
:1046800004E0A6D549015A016B017C018E010F5F40
:104690001F4FF801B05D729EB00D1124B883A0E0E9
:1046A000D1D511F0E801B6CFCF01CDB7DEB7EDE03F
:1046B00058C56330710550F4FB01EE0FFF1FEF503A
:1046C000FE4E5183408380E090E008958FEF9FEF8E
:1046D00008951F920F920FB60F9211240BB60F92EE
:1046E0002F933F934F935F936F937F938F939F93FA
:1046F000AF93BF93EF93FF93E091F111F091F2111B
:10470000309709F01995FF91EF91BF91AF919F916B
:104710008F917F916F915F914F913F912F910F906A
:104720000BBE0F900FBE0F901F9018951F920F9207
:104730000FB60F9211240BB60F922F933F934F9306
:104740005F936F937F938F939F93AF93BF93EF93F9
:10475000FF93E091F311F091F411309709F019955E
:10476000FF91EF91BF91AF919F918F917F916F9149
:104770005F914F913F912F910F900BBE0F900FBE05
:104780000F901F9018951F920F920FB60F92112441
:104790000BB60F922F933F934F935F936F937F933B
:1047A0008F939F93AF93BF93EF93FF93E091F51196
:1047B000F091F611309709F01995FF91EF91BF91A3
:1047C000AF919F918F917F916F915F914F913F91A9
:1047D0002F910F900BBE0F900FBE0F901F9018954A
:1047E0001092C41281E08093C2121092C112589AA2
:1047F000599AE9EBF0E080818E7F808380818D7F04
:10480000808388E48093B80085E48093BC00089599
:10481000880F8093BA000895613498F42091C412EF
:10482000243089F460933912FC018BE392E1DC01BE
:104830002A2F281B261718F421912D93F9CF80E0F9
:10484000089581E0089582E008959093BE128093C8
:10485000BD1208959093C0128093BF12089585ED04
:104860008093BC008091BC0084FDFCCF1092C412E8
:10487000089585EC8093BC001092C41208951F9295
:104880000F920FB60F9211240BB60F922F933F93F6
:104890004F935F936F937F938F939F93AF93BF9348
:1048A000EF93FF938091B900887F803609F49CC014
:1048B00068F5883209F45BC090F4803109F454C083
:1048C00038F4882309F4F3C0883009F44DC0F2C0ED
:1048D000883109F44CC0803209F45DC0EBC08034EB
:1048E00009F468C048F4803309F455C0883309F0EE
:1048F000E1C08093F711A7C0803509F44FC0883517
:1049000009F45DC0883409F0D5C0D3C0883909F4F2
:10491000C4C0A8F4883709F467C038F4883609F4AD
:1049200063C0803709F460C0C5C0883809F4B5C0D9
:10493000803909F45FC0803809F0BCC05BC0803B9F
:1049400009F483C038F4803A09F466C0883A09F45F
:104950007CC0B0C0803C09F4A4C0883C09F4A1C06C
:10496000883B09F487C0A6C08091C31210C0909103
:104970007C1280917B12981770F5E0917C1281E097
:104980008E0F80937C12F0E0E358FD4E808180937F
:10499000BB0085EC83C08093F7118BC0E0917C1243
:1049A00081E08E0F80937C128091BB00F0E0E35891
:1049B000FD4E808390917C1280917B126BC0E091C0
:1049C0007C1281E08E0F80937C128091BB00F0E01E
:1049D000E358FD4E80838091C21281116AC081E04C
:1049E0008093C11284EA5EC083E08093C412109267
:1049F000F811CFCF8091F811803408F04EC0E091CB
:104A0000F81181E08E0F8093F8118091BB00F0E0E7
:104A1000E750FE4E8083BDCF8091F811803430F492
:104A2000E091F811F0E0E750FE4E108218DF60913F
:104A3000F81170E0E091BD12F091BE1289EF91E1A2
:104A400019951092F81115DF35C084E08093C412D7
:104A500010923A1210923912E091BF12F091C012E6
:104A6000199580913912811105C081E08093391226
:104A700010923B12E0913A1281E08E0F80933A122D
:104A8000F0E0E55CFD4E80818093BB0090913A128E
:104A900080913912981708F47CCF85E88093BC0088
:104AA00009C085EC8093BC001092C41203C0109220
:104AB000F711D5DEFF91EF91BF91AF919F918F914B
:104AC0007F916F915F914F913F912F910F900BBE0E
:104AD0000F900FBE0F901F9018955058BB27AA2714
:104AE0000ED070C161D130F066D120F031F49F3F1B
:104AF00011F41EF456C10EF4E095E7FB4CC1E92F0A
:104B000072D180F3BA17620773078407950718F00C
:104B100071F49EF58AC10EF4E0950B2EBA2FA02DEC
:104B20000B01B90190010C01CA01A0011124FF275A
:104B3000591B99F0593F50F4503E68F11A16F04055
:104B4000A22F232F342F4427585FF3CF4695379554
:104B50002795A795F0405395C9F77EF41F16BA0B19
:104B6000620B730B840BBAF09150A1F0FF0FBB1FC7
:104B7000661F771F881FC2F70EC0BA0F621F731F10
:104B8000841F48F4879577956795B795F7959E3F6D
:104B900008F0B3CF9395880F08F09927EE0F9795FB
:104BA00087950895D4D008F481E008950CD00AC107
:104BB00002D140F0F9D030F021F45F3F19F0EBC0A2
:104BC000511134C1EEC00FD198F39923C9F3552385
:104BD000B1F3951B550BBB27AA27621773078407F0
:104BE00038F09F5F5F4F220F331F441FAA1FA9F3A6
:104BF00033D00E2E3AF0E0E830D091505040E69598
:104C0000001CCAF729D0FE2F27D0660F771F881FF8
:104C1000BB1F261737074807AB07B0E809F0BB0BE7
:104C2000802DBF01FF2793585F4F2AF09E3F51050B
:104C300068F0B1C0FBC05F3FECF3983EDCF38695B3
:104C400077956795B795F7959F5FC9F7880F911D81
:104C50009695879597F90895E1E0660F771F881F6D
:104C6000BB1F621773078407BA0720F0621B730B20
:104C7000840BBA0BEE1F88F7E0950895BCD088F03E
:104C80009F5790F0B92F9927B751A0F0D1F0660F38
:104C9000771F881F991F1AF0BA95C9F712C0B13053
:104CA00081F0C3D0B1E00895C0C0672F782F882766
:104CB000B85F39F0B93FCCF3869577956795B39592
:104CC000D9F73EF490958095709561957F4F8F4F01
:104CD0009F4F0895E89409C097FB3EF49095809506
:104CE000709561957F4F8F4F9F4F9923A9F0F92FB2
:104CF00096E9BB279395F695879577956795B79530
:104D0000F111F8CFFAF4BB0F11F460FF1BC06F5F15
:104D10007F4F8F4F9F4F16C0882311F096E911C027
:104D2000772321F09EE8872F762F05C0662371F048
:104D300096E8862F70E060E02AF09A95660F771F5C
:104D4000881FDAF7880F9695879597F90895990F38
:104D50000008550FAA0BE0E8FEEF16161706E80745
:104D6000F907C0F012161306E407F50798F0621B66
:104D7000730B840B950B39F40A2661F0232B242B3B
:104D8000252B21F408950A2609F4A140A6958FEF5A
:104D9000811D811D089597F99F6780E870E060E0AC
:104DA00008959FEF80EC089500240A9416161706C4
:104DB00018060906089500240A941216130614060C
:104DC00005060895092E0394000C11F4882352F06F
:104DD000BB0F40F4BF2B11F460FF04C06F5F7F4F27
:104DE0008F4F9F4F089557FD9058440F551F59F00E
:104DF0005F3F71F04795880F97FB991F61F09F3FC8
:104E000079F087950895121613061406551FF2CFF0
:104E10004695F1DF08C0161617061806991FF1CF40
:104E200086957105610508940895E894BB27662767
:104E30007727CB0197F908958ADF08F48FEF08955B
:104E40000BD0C0CFB1DF28F0B6DF18F0952309F002
:104E5000A2CFA7CF1124EACFC6DFA0F3959FD1F34D
:104E6000950F50E0551F629FF001729FBB27F00D18
:104E7000B11D639FAA27F00DB11DAA1F649F66276D
:104E8000B00DA11D661F829F2227B00DA11D621FBC
:104E9000739FB00DA11D621F839FA00D611D221F76
:104EA000749F3327A00D611D231F849F600D211D5A
:104EB000822F762F6A2F11249F5750408AF0E1F0FD
:104EC00088234AF0EE0FFF1FBB1F661F771F881F46
:104ED00091505040A9F79E3F510570F05CCFA6CF8E
:104EE0005F3FECF3983EDCF3869577956795B79531
:104EF000F795E7959F5FC1F7FE2B880F911D96955B
:104F0000879597F9089523DF880B990B0895AA1BBD
:104F1000BB1B51E107C0AA1FBB1FA617B70710F0A4
:104F2000A61BB70B881F991F5A95A9F780959095D6
:104F3000BC01CD01089597FB072E16F4009406D00E
:104F400077FD08D0E4DF07FC05D03EF4909581950D
:104F50009F4F0895709561957F4F0895A1E21A2E95
:104F6000AA1BBB1BFD010DC0AA1FBB1FEE1FFF1F0D
:104F7000A217B307E407F50720F0A21BB30BE40B5D
:104F8000F50B661F771F881F991F1A9469F76095A4
:104F90007095809590959B01AC01BD01CF0108955E
:104FA000689401C0E894F92FF12B0AF027C0A0E023
:104FB000B0E0ECEDF7E2BAC0092E05941AF4A0D0E7
:104FC000112392F4F0E80F26FFEFE094F09400959F
:104FD0001095B094C094D094A194BF0ACF0ADF0A70
:104FE000EF0AFF0A0F0B1F0B3AD007FC89D0CDB791
:104FF000DEB7ECE0B7C0689401C0E8948F929F924E
:10500000CF93DF932CD0DF91CF919F908F90089515
:10501000E894DF93CF93FC01DB0120D17F936F9362
:10502000E9019A01AC01BF93AF933F932F93DF0146
:1050300015D126F46C1B7D0B820B930B9E01EB01AB
:10504000FC0125D1AF91BF912F913F9120D1BE019D
:10505000CF01F9012F913F91CF91DF9108958824DD
:105060009924F401E401B0E49F93AA279A158B04D4
:105070009C04ED05FE05CF05D007A10798F4AD2FE0
:10508000DC2FCF2FFE2FE92D982C892E982F872FDC
:10509000762F652F542F432F322F2227B85031F708
:1050A000BF9127C01B2EBF91BB27220F331F441F68
:1050B000551F661F771F881F991F881C991CEE1F9C
:1050C000FF1FCC1FDD1FAA1FBB1F8A149B04EC050A
:1050D000FD05CE05DF05A007B10748F08A189B083B
:1050E000EC09FD09CE09DF09A00BB10B21601A9470
:1050F000E1F62EF49401AF01BE01CD01000C08953C
:105100006095709580959095309540955095219536
:105110003F4F4F4F5F4F6F4F7F4F8F4F9F4F0895C0
:105120002F923F924F925F926F927F928F929F92B7
:10513000AF92BF92CF92DF92EF92FF920F931F93A5
:10514000CF93DF93CDB7DEB7CA1BDB0B0FB6F89456
:10515000DEBF0FBECDBF19942A88398848885F8486
:105160006E847D848C849B84AA84B984C884DF8007
:10517000EE80FD800C811B81AA81B981CE0FD11DEB
:105180000FB6F894DEBF0FBECDBFED010895EE0F50
:10519000FF1F0590F491E02D19940F93083090F0C3
:1051A000982F872F762F652F542F432F322F2227AA
:1051B0000850F4CF220F331F441F551F661F771F5F
:1051C000881F991F0A95B2F70F91089597FB10F861
:1051D000169400080F93083098F00850232F342FAE
:1051E000452F562F672F782F892F902DF4CF0594B8
:1051F000979587957795679557954795379527950F
:105200000A95AAF70F9108952A0D3B1D4C1D5D1DAF
:105210006E1D7F1D801F911F08950024A7FD00941F
:105220002A0F301D401D501D601D701D801D901DDA
:1052300008952A193B094C095D096E097F09800B05
:10524000910B08950024A7FD00942A17300540050E
:10525000500560057005800590050895A29FB00176
:10526000B39FC001A39F700D811D1124911DB29F9A
:10527000700D811D1124911D0895F0DFA59F900DE3
:10528000B49F900DA49F800D911D11240895E6DF19
:10529000460F571FC81FD91F08F43196089507906D
:1052A000F691E02D19940F931F93CF93DF93869F70
:1052B0008001879F100D969F100D1124C8010DD0FD
:1052C000EC01009721F0A80160E070E044D1CE012C
:1052D000DF91CF911F910F910895CF93DF9382308B
:1052E000910510F482E090E0E091C712F091C812AD
:1052F00020E030E0A0E0B0E0309739F1408151810A
:1053000048175907B8F04817590771F482819381FB
:10531000109729F013969C938E9312972CC090931C
:10532000C8128093C71227C02115310531F04217EA
:10533000530718F0A901DB0101C0EF019A01BD017B
:10534000DF010280F381E02DD7CF21153105F9F07F
:10535000281B390B2430310580F48A819B8161152B
:10536000710521F0FB019383828304C09093C812DE
:105370008093C712FE01329644C0FE01E20FF31F74
:105380008193919322503109398328833AC0209127
:10539000C5123091C612232B41F4209102023091A4
:1053A00003023093C6122093C5122091000230915F
:1053B00001022115310541F42DB73EB74091040299
:1053C00050910502241B350BE091C512F091C612D5
:1053D000E217F307A0F42E1B3F0B2817390778F0CC
:1053E000AC014E5F5F4F2417350748F04E0F5F1F2B
:1053F0005093C6124093C5128193919302C0E0E08E
:10540000F0E0CF01DF91CF910895CF93DF93009724
:1054100009F487C0FC01329713821282C091C7122F
:10542000D091C812209781F420813181280F391F33
:105430008091C5129091C6128217930779F5F09367
:10544000C612E093C5126DC0DE0120E030E0AE1759
:10545000BF0750F412964D915C9113979D01411531
:10546000510509F1DA01F3CFB383A2834081518161
:10547000840F951F8A179B0771F48D919C9111974A
:10548000840F951F02969183808312968D919C9133
:105490001397938382832115310529F4F093C81261
:1054A000E093C7123EC0D9011396FC93EE93129776
:1054B0004D915D91A40FB51FEA17FB0779F4808128
:1054C0009181840F951F0296D90111969C938E931A
:1054D0008281938113969C938E931297E0E0F0E083
:1054E0008A819B81009719F0FE01EC01F9CFCE0172
:1054F000029628813981820F931F2091C512309125
:10550000C6122817390769F4309729F41092C81287
:105510001092C71202C013821282D093C612C09397
:10552000C512DF91CF9108956627772756C0FC01F9
:105530000590615070400110D8F7809590958E0FBE
:105540009F1F0895FB01DC0102C001900D924150A4
:105550005040D8F70895DC0101C06D934150504090
:10556000E0F70895FC016150704001900110D8F7F8
:10557000809590958E0F9F1F0895DC01CB01FC0153
:10558000F999FECF06C0F2BDE1BDF89A319600B49C
:105590000D9241505040B8F70895F999FECF92BD51
:1055A00081BDF89A992780B50895A6E1B0E044E05E
:1055B00050E0E5CFA8E1B0E042E050E0E0CF262F98
:1055C000F999FECF1FBA92BD81BD20BD0FB6F894E8
:1055D000FA9AF99A0FBE019608954F925F926F92D0
:1055E0007F928F929F92AF92BF92CF92DF92EF9273
:1055F000FF920F931F93CF93DF938B01611571057A
:1056000021F0DB018C9311969C93EC015E01BFEFBE
:10561000AB1ABB0A7501C8808C2D90E052D1892B42
:1056200011F0E501F3CFEDE2CE1208C07E01F2E009
:10563000EF0EF11CC980DD24D39409C02BE2C21205
:1056400005C07E0142E0E40EF11CC980D12CE701C7
:10565000219743E050E067ED73E0CE013AD1892B0A
:10566000C9F4E701229645E050E062ED73E0CE0117
:1056700030D1892B11F4E70127960115110519F096
:10568000D801CD93DC93D11002C160E070E080E8D6
:105690009FE706C143E050E06FEC73E0CE0119D103
:1056A000892B59F40115110509F4F6C0B2E0EB0E8F
:1056B000F11CF801F182E082EFC0F70160E070E0D8
:1056C000CB01C0E0D0E07F01A0EDAA2EAC0C29E018
:1056D0002A1528F14D2D4260B42E2D2D2870D2FEB2
:1056E00004C0211124C0219622C021112197A5E0D8
:1056F000B0E09B01AC01C1DD660F771F881F991FC9
:105700006A0D711D811D911D6839A9E97A078A0703
:10571000A9E19A0760F0BD2DB660BB2E08C02EEF40
:10572000A2120AC0D3FC50C04D2D4860B42E319651
:10573000D701CC90DB2CC7CF2C2D2F7D253409F041
:1057400043C0A081AD3241F4BD2DB061DB2E7F019D
:1057500022E0E20EF11C0CC07F01AB3231F04FEFC2
:10576000E41AF40A21E030E006C0A2E0EA0EF11CDF
:10577000A18122E030E0A053AA3018F0E21AF30A27
:1057800023C0F70120E030E02038BCE03B075CF4A8
:10579000A901440F551F440F551F240F351F220F19
:1057A000331F2A0F311DAF014F5F5F4F7A01A08178
:1057B000A053AA3010F4FA01E7CFD4FE03C031950C
:1057C00021953109C20FD31FD1FE09C00115110562
:1057D00031F0E1E0EE1AF108D801ED92FC927ADAAC
:1057E0002D2D2370233019F06B017C0106C06B0155
:1057F0007C01F7FAF094F7F8F09420E030E0A9018A
:10580000C701B601CFD9882309F43EC0D7FF06C02F
:10581000D195C195D1090EEE13E002C006E014E067
:105820004801B8E18B1A910890E2A92EB12CF80139
:105830004590559065907490CA15DB0554F0A3010E
:105840009201C701B601FCDA6B017C01CA19DB09C0
:10585000F3CF04501109B594A7940815190539F729
:105860008E2D880F8F2D881F8F3F41F020E030E074
:10587000A901C701B60196D9811106C082E290E064
:105880009093CA128093C912C701B60109C060E0A3
:1058900070E080E89FEF04C060E070E080EC9FE77C
:1058A000DF91CF911F910F91FF90EF90DF90CF90FC
:1058B000BF90AF909F908F907F906F905F904F9030
:1058C000089591111EC0803219F089508550D0F78B
:1058D0000895FB01DC014150504088F08D918134E6
:1058E0001CF08B350CF4805E659161341CF06B35D7
:1058F0000CF4605E861B611171F3990B0895881B8F
:0C590000FCCF992788270895F894FFCF6A
:10590C000000CB122000C225662C25662C25662CA7
:10591C0025662C25662C25662C25640D0A00B610F0
:10592C0000000000B80591052F0537053F0552050D
:10593C00610500000000B90717069E06EB06EE068F
:10594C002C06F20691060000000075096F099F09EC
:10595C00A908AD0800000000A109A209C909E109C4
:10596C00FF09C2098C0AAE0A720A00000000180A6C
:10597C00330A450A5E0A000000006A0B640B670BD1
:10598C00680BD90B000000006C0B00000000DA0D56
:10599C00F00DCF0DF30DF80EFB0D270F5C0F110E54
:1059AC009F0FD30DD60D000000000811751050117B
:1059BC007810C310E810FB10000000008411431293
:1059CC007F12A912E3121D1368138C13CD13620BF3
:1059DC00630B00000000C814E7141A15E5141C151D
:1059EC00F113F71348144E1483155214491455141B
:1059FC005A146E148A14B114EF13F0130000000043
:105A0C00C116F616671600000000371714170000B1
:105A1C000000D3171A183E1949185918A7189018CE
:105A2C001D180000000093199019351AFF190F1A50
:105A3C001E1A601A131700000000651ABB1ABE1A52
:105A4C00C11AC41AC91A661A7E1A981A00000000E4
:105A5C00611B931B031B1A1B351BCE04E804F704B4
:105A6C000E0525052A05DF1A921C4F1D531BEF1A34
:085A7C00F21AF71ACA04CB0468
:00000001FF
